:100000000EC028C027C026C025C024C023C022C0DF
:1000100021C020C01FC01EC01DC0D4C004C11124F7
:100020001FBECFE5D2E0DEBFCDBF10E0A0E6B0E05E
:10003000EEE4F3E002C005900D92A436B107D9F7C3
:1000400021E0A4E6B0E001C01D92A131B207E1F7C2
:100050005BD07BC1D5CF81E08093640008950F937E
:100060001F93CF93DF9306E610E0C82FD0E0CA5964
:10007000DF4F0C171D0799F4809166008239F9F063
:10008000833991F0803809F5C1988FE77AD081E003
:1000900080936500DF91CF911F910F91089580D0DB
:1000A000F80181938F01E5CFB99AC19A81E08093DD
:1000B00062008CE6DF91CF911F910F9162C0B99AD7
:1000C000C198109262008DE6F5CF8FEFF3CFF894D0
:1000D00080E886BD83E086BD78940895F89480E832
:1000E00086BD16BC7894089514BE88E181BD87E072
:1000F00081BD0895C19888E198E00FB6F894A8955D
:1001000081BD0FBE91BDFFCFEFDFE1DFB99AC1988E
:100110002FE78AE196E0215080409040E1F700C04F
:100120000000DCDF8FE290E090938D0080938C00E4
:100130008BE290E090938F0080938E008CE260D0F1
:10014000789442E02FEF3FEF809165008111D2DF7C
:100150008091600090916100BC01615071097093C1
:10016000610060936000892B99F780916200882379
:1001700019F088B3842788BB309361002093600016
:10018000E3CFE0918700EF5FEF73E09387009091FA
:100190008600E917F1F3F0E0E053FF4F8083089504
:1001A00080918A00815008F48EEF80938A00E0915C
:1001B0008800EF5FEF73E0938800F0E0E057FF4FB7
:1001C000808108951F921FB61F9211248F93B898B3
:1001D00010921001B29B02C0B09BFCCFB09909C035
:1001E00088EF8DB980EF8EB98F911F901FBE1F9041
:1001F000189588EAF6CF88EA8DB980E78EB9089518
:1002000080938B00109287001092860010928A00D3
:10021000109289001092880087B3856087BBC09ACE
:10022000C29AB898E8CF1F920F920FB60F9211247E
:100230002F933F934F935F936F937F938F939F93EE
:10024000AF93BF93EF93FF9380911001823009F435
:1002500070C0B0F4882361F1813009F44EC0FF9181
:10026000EF91BF91AF919F918F917F916F915F912E
:100270004F913F912F910F900FBE0F901F901895A7
:10028000843009F45DC070F1853049F780918A00AF
:100290008F5F80938A00E0918900EF5FEF73E093B6
:1002A00089008FB1F0E0E057FF4F808384E015C0F4
:1002B0008FB1882331F08FB1869590918B0089138F
:1002C00036C0789BF3CFE0918C00F0918D00309791
:1002D00019F080918A00099581E0809310011FB880
:1002E000B89A2CC08FB1882341F085DFE0918E0051
:1002F000F0918F00309709F00995E0918600809188
:1003000087008E1781F0EF5FEF73E0938600F0E0D7
:10031000E053FF4F80818FB982E080931001B89A3B
:1003200080E78EB99CCF1FB8B8988EE78EB963DF8F
:1003300096CF83E0809310011FB8B8988EE7F1CF75
:0E03400085E080931001B898EBCFF894FFCFC2
:04034E00FFFF0100AC
:00000001FF
