:101AC00000C011241FBECFE5D2E0CDBFDEBF10E0C5
:101AD000A0E6B0E0E2EEFFE102C005900D92A6376D
:101AE000B107D9F721E0A6E7B0E001C01D92AC3301
:101AF000B207E1F703C1E091B700EF5FEF73E09346
:101B0000B7009091B600E917F1F3F0E0E550FF4F10
:101B100080830895EF92FF920F931F93CF93DF93EB
:101B2000CDB7DEB72C970FB6F894DEBF0FBECDBF92
:101B30008DE7898384E58A8381E08B8389E28C83C6
:101B400082E28D831E828AE18F8380EC8887EFEBAF
:101B5000FAE184918987EEEBFAE184918A8789E042
:101B6000F0E0E0E08093570084918B8781B78C8709
:101B7000FA018381816083838E010F5F1F4F7E0195
:101B8000FDE0EF0EF11CF80181918F01B4DF0E151D
:101B90001F05C9F72C960FB6F894DEBF0FBECDBF58
:101BA000DF91CF911F910F91FF90EF900895CF9308
:101BB000DF93EA0189E79FDF8B8188608B83DF9168
:101BC000CF910895CF93DF93EA018CE794DF8B8167
:101BD00084608B83DF91CF910895CF92DF92FF9243
:101BE0000F931F93CF93DF93DA016D917C9111973F
:101BF00012962C911297FB01E20FF11D309709F01C
:101C00004FC0EC01398114963C9314971A811596B4
:101C10001C93159731E04FE55DEC0A0130935700B6
:101C2000E89511243981C12FC30F2E5F12962C9392
:101C300012979C018C01025E1F4F12964C911297D5
:101C4000F9015481D381FB01E40FF11DD52ECD2E76
:101C5000FF24F3940601F0925700E89511245D0FDC
:101C6000C50F4E5F12964C9312972E5F3F4F02178F
:101C7000130719F7FC0181A18C1739F013968C9189
:101C80001397846013968C93C0E08AE734DF8C2F1F
:101C9000DF91CF911F910F91FF90DF90CF902BCFCD
:101CA0009C018C01005E1F4FC0E012964C91129770
:101CB000F9015281D181FB01E40FF11DD52ECD2E0A
:101CC000FF24F3940601F0925700E89511245D0F6C
:101CD000C50F4E5F12964C9312972E5F3F4F02171F
:101CE000130719F7C7CFFA018381826083838EE7D8
:101CF00002CF88EA8DB980E78EB9089500D000D070
:101D000000D0CDB7DEB714BE88E181BD87E081BDCC
:101D1000F894D1B681B7845B81BF80E886BD16BCDC
:101D20001092B7001092B6001092BA001092B9004B
:101D30001092B80087B3856087BBC09AC29AB898E2
:101D4000D8DF81E187BFE8951A8219821B821C8245
:101D50001D821E8210E0EE24EA94F12C0AE0779BAB
:101D60000FC06F9B0DC0B89810923B01B29B02C090
:101D7000B09BFCCFB09915C088EF8DB980EF8EB9BC
:101D8000769B7AC06E9B78C080913B01823009F4CB
:101D9000B7C048F4882301F1813009F494C0769AE1
:101DA000ADC088EAEACF843009F4B1C008F45FC05E
:101DB0008530A9F78091BA008F5F8093BA00E091D7
:101DC000B900EF5FEF73E093B9008FB1F0E0E55435
:101DD000FF4F808384E034C08FB1882329F08FB116
:101DE00086958B3009F089C0789BF4CF2091BA009A
:101DF0008091B80046E750E0FA01922F3E2F341B45
:101E0000321718F19093BA008093B80030917600A1
:101E1000E0E6F0E090E080E04081341322C063E02F
:101E200070E0CED0805A9F4FDC011196ED91FC916D
:101E3000AE014F5F5F4F622F86E790E0099581E02A
:101E400080933B011FB8B89A60C0915008F49EEF90
:101E50008F5F8F73A82FB0E0A554BF4F3C91319393
:101E6000CDCF0196339687309105B1F6E8CF8FB18B
:101E7000882349F13EDF11E08C8180FF86C0112369
:101E800009F46DCF83FF08C0D1BE80E886BD83E032
:101E900086BDEFE5FDE009958C8182FF3DC0E0EC59
:101EA000FAE1E054F10983E080935700E895309718
:101EB000C1F7D1BE88E198E00FB6F894A89581BD2E
:101EC0000FBE91BDFFCFE091B6008091B7008E1795
:101ED00081F0EF5FEF73E093B600F0E0E550FF4F65
:101EE00080818FB982E080933B01B89A80E78EB9F8
:101EF00005C01FB8B8988EE78EB9FBDE10E0BCCFE6
:101F000083E080933B011FB8B8988EE7F0CF85E05F
:101F100080933B01B898EACF8B81803409F033C0BD
:101F200029813A812038FAE13F0768F585E0F90117
:101F300080935700E8952115310501F58D819E812B
:101F40008F559D409F70906CE0E8FAE141E06FEFA3
:101F50007FEF0B0140935700E89511243296EE3B3A
:101F60005AE1F50799F70C0140935700E8951124C1
:101F700085E0E0E8FAE180935700E895205C3F4F68
:101F80003A8329831B8210E0EACEE114F10421F0A8
:101F900081E0E81AF108E3CE002329F00150EE2495
:101FA000EA94FE2CDCCED1BE80E886BD83E086BDFF
:101FB000EFE5FDE00995EE24EA94FE2C0FEFCFCE7D
:101FC0000024552704C0080E591F880F991F009739
:101FD00029F076956795B8F37105B9F7802D952F9F
:021FE000089562
:101FE200828A0D86D70D83E20D85ED0D81730E0079
:061FF200000000000000E9
:0400000300001AC01F
:00000001FF
