:1019800000C011241FBECFE5D2E0CDBFDEBF10E006
:10199000A0E6B0E0EAEBFFE102C005900D92A637A9
:1019A000B107D9F721E0A6E7B0E001C01D92AC3342
:1019B000B207E1F781C1E091B700EF5FEF73E09309
:1019C000B7009091B600E917F1F3F0E0E550FF4F52
:1019D00080830895EF92FF920F931F93CF93DF932D
:1019E000CDB7DEB72C970FB6F894DEBF0FBECDBFD4
:1019F0008DE7898384E58A8381E08B8389E28C8308
:101A00008BEB8D831E8289E18F8380E88887EFE7E7
:101A1000F9E184918987EEE7F9E184918A8789E089
:101A2000F0E0E0E08093570084918B8781B78C874A
:101A3000FA01838181608383C1988E010F5F1F4FFC
:101A40007E01FDE0EF0EF11CF80181918F01B3DF03
:101A50000E151F05C9F72C960FB6F894DEBF0FBE02
:101A6000CDBFDF91CF911F910F91FF90EF9008951F
:101A7000CF93DF93EA0189E79EDF8B8188608B83B8
:101A8000DF91CF910895CF93DF93EA018CE793DF45
:101A90008B8184608B83DF91CF910895CF93FC017C
:101AA0002181622F70E0762F66272281260F372F43
:101AB000311D207CDA012D933C93C1818281C80FB6
:101AC0008BE779DF8C2FCF9176CFCF92DF92FF9289
:101AD0000F931F93CF93DF93DA016D917C91119750
:101AE00012962C911297FB01E20FF11D309709F02D
:101AF0004FC0EC01398114963C9314971A811596C6
:101B00001C93159731E04FEB5CEC0A0130935700C2
:101B1000E89511243981C12FC30F2E5F12962C93A3
:101B200012979C018C01025E1F4F12964C911297E6
:101B3000F9015481D381FB01E40FF11DD52ECD2E87
:101B4000FF24F3940601F0925700E89511245D0FED
:101B5000C50F4E5F12964C9312972E5F3F4F0217A0
:101B6000130719F7FC0181A18C1739F013968C919A
:101B70001397846013968C93C0E08AE71CDF8C2F48
:101B8000DF91CF911F910F91FF90DF90CF9013CFF6
:101B90009C018C01005E1F4FC0E012964C91129781
:101BA000F9015281D181FB01E40FF11DD52ECD2E1B
:101BB000FF24F3940601F0925700E89511245D0F7D
:101BC000C50F4E5F12964C9312972E5F3F4F021730
:101BD000130719F7C7CFAF92BF92CF92DF92EF9260
:101BE000FF920F931F93CF93DF93CDB7DEB7FC0126
:101BF0000DB71EB7638182E0D82ED60E4D2D50E072
:101C00008DB79EB7841B950B0FB6F8949EBF0FBE81
:101C10008DBF2DB73EB72F5F3F4F88E7ADB7BEB73B
:101C200011968C931197A40FB51F1C92918152812C
:101C3000E92FF0E0FE2FEE27E50FF11D81E0681798
:101C4000F0F4950F8C91980F9C93C22E79018E2DF4
:101C50008C198D1508F188B392E0892788BB0FB6DF
:101C6000F8941EBF0FBE0DBFDF91CF911F910F9152
:101C7000FF90EF90DF90CF90BF90AF900895759157
:101C80005F017901E80EF11CF70170834C91470F59
:101C90004C938F5FF501D3CFD7018D917D018BDE02
:101CA000D6CFFA018381826083838EE784CE88EA6F
:101CB0008DB980E78EB9089500D000D000D0CDB79F
:101CC000DEB714BE88E181BD87E081BDF894B99A82
:101CD000D1B681B7845B81BF80E886BD16BC109207
:101CE000B7001092B6001092BA001092B90010928C
:101CF000B80087B3856087BBC09AC29AB898D7DF0F
:101D000081E187BFE8951A8219821B821C821D829D
:101D10001E8210E0EE24EA94F12C0AE0779B0FC0BB
:101D20006F9B0DC0B89810923B01B29B02C0B09B54
:101D3000FCCFB09915C088EF8DB980EF8EB9769B36
:101D40007AC06E9B78C080913B01823009F4BAC0A2
:101D500048F4882301F1813009F497C0769AB0C025
:101D600088EAEACF843009F4B4C008F45FC0853053
:101D7000A9F78091BA008F5F8093BA00E091B90013
:101D8000EF5FEF73E093B9008FB1F0E0E554FF4FE0
:101D9000808384E034C08FB1882329F08FB1869589
:101DA0008B3009F08CC0789BF4CF2091BA008091E1
:101DB000B80046E750E0FA01922F3E2F341B32174D
:101DC00018F19093BA008093B80030917600E0E665
:101DD000F0E090E080E04081341322C063E070E0E6
:101DE000DBD0805A9F4FDC011196ED91FC91AE0142
:101DF0004F5F5F4F622F86E790E0099581E0809307
:101E00003B011FB8B89A63C0915008F49EEF8F5FF2
:101E10008F73A82FB0E0A554BF4F3C913193CDCF25
:101E20000196339687309105B1F6E8CF8FB18823BC
:101E300061F13DDF11E09C81892F8370833009F0CF
:101E40008CC0112309F46ACF93FF07C0D1BE90E87C
:101E500096BD86BDEFEBFCE009958C8182FF3EC00C
:101E6000C19AE0E8F9E1E054F10983E0809357007A
:101E7000E8953097C1F7D1BE88E198E00FB6F894A5
:101E8000A89581BD0FBE91BDFFCFE091B6008091B6
:101E9000B7008E1781F0EF5FEF73E093B600F0E0CC
:101EA000E550FF4F80818FB982E080933B01B89A63
:101EB00080E78EB905C01FB8B8988EE78EB9F7DEF7
:101EC00010E0B9CF83E080933B011FB8B8988EE74C
:101ED000F0CF85E080933B01B898EACF8B818034C6
:101EE00009F039C089819A818034994108F033C062
:101EF00088B392E0892788BB29813A8185E0F9017E
:101F000080935700E8952115310501F58D819E815B
:101F10008F5B9C409F70906CE0E4F9E141E06FEFD3
:101F20007FEF0B0140935700E89511243296EE376E
:101F300059E1F50799F70C0140935700E8951124F2
:101F400085E0E0E4F9E180935700E895205C3F4F9D
:101F50003A8329831B8210E0E1CEE114F10421F0E1
:101F600081E0E81AF108DACE88B392E0892788BBCD
:101F7000002329F00150EE24EA94FE2CCFCED1BEEE
:101F800080E886BD83E086BDEFEBFCE00995EE249A
:101F9000EA94FE2C0FEFC2CE0024552704C0080E91
:101FA000591F880F991F009729F076956795B8F308
:0A1FB0007105B9F7802D952F0895F3
:101FBA0082EA0C86380D83430D844E0D85650D87A4
:061FCA00EB0D81510E0039
:040000030000198060
:00000001FF
