:1000000003C003C003C003C003C003C003C003C0D8
:10008000CAC2ECC2EBC2EAC2E9C2E8C2E7C2E6C237
:10009000E5C2E4C2E3C2E2C2E1C2E0C2DFC200C024
:1000A00011241FBECFE5D2E0CDBFDEBF20E0A0E629
:1000B000B0E001C01D92A23AB207E1F768C10F9308
:1000C0001F93CF93DF9304E610E0C82FD0E0CC5904
:1000D000DF4F0C171D0729F4DF91CF911F910F916E
:1000E0000895E8D1F80181938F01F3CFAF92BF92C9
:1000F000CF92DF92EF92FF920F931F93CF93DF93F4
:10010000CDB7DEB729970FB6F894DEBF0FBECDBFCF
:10011000EDB6FEB680916400843A09F46BC038F401
:10012000863509F4D0C0833AF9F08FEF1BC0873AC7
:1001300009F466C0883A09F455C0853AB1F7809150
:10014000650010916600282F30E0322F2227210F02
:10015000311D207C3093620020936100180F8AE5E6
:1001600093D1812F91D128C08CE5898384E58A833E
:1001700081E08B838C8388EA8D838AE18E8380E89B
:100180008F83EFE7FAE184918887EEE7FAE18491C3
:100190008987809163008160809363008E010F5F87
:1001A0001F4F6E018AE0C80ED11CF80181918F01AA
:1001B0006BD1C016D106C9F70FB6F894FEBE0FBEBC
:1001C000EDBE29960FB6F894DEBF0FBECDBFDF910E
:1001D000CF911F910F91FF90EF90DF90CF90BF9044
:1001E000AF90089587E550D1809163008860809337
:1001F0006300E2CF8BE548D1809163008460F7CF44
:10020000909160002091610030916200F901E90F46
:10021000F11D48E0490F309751F51091660080912B
:100220006500180F9E5F81E06FE37DEC0B0180930A
:100230005700E8951124A4E6B0E014968C91149729
:1002400013965C911397F901E90FF11DD82EC52E75
:1002500061E0060160935700E8951124850F180F9F
:100260009E5F12969413E9CF909360001CC0A4E6A1
:10027000B0E010E012968C91129711965C91119754
:10028000F901E90FF11DD82EC52E61E0060160933A
:100290005700E8951124850F180F9E5F1296491399
:1002A000E9CF4093600080916D00811304C080917C
:1002B0006000813430F0809163008460809363003B
:1002C00010E088E54DCF0DB71EB73091670042E0D2
:1002D000D42ED30EED2DF0E08DB79EB78E1B9F0B65
:1002E0000FB6F8949EBF0FBE8DBFADB7BEB71196C7
:1002F0009091650040916600232F290F2A5A240F00
:1003000080916800281340C08FEF830F8431E0F59F
:10031000319789EA8C93892F90E0982F8827840F52
:10032000911D90936200809361005F01AA0EBB1E35
:10033000F5011082782FAD014F5F5F4F282F692F95
:10034000822F962FFC016591CF01FA016193AF01D5
:10035000F5012081260F2083282F692F81E0820F4D
:10036000871B381768F7CA2E5D018A2D8C198D15E9
:1003700030F00FB6F8941EBF0FBE0DBF1DCFF501B4
:1003800081915F0181D0F1CF8FEF7ED0F2CF14BE8B
:1003900088E181BD87E081BDF89480E886BD16BC08
:1003A00088E059D080E59DE09093A1008093A00063
:1003B00087E69DE090939F0080939E0081E187BF38
:1003C000E89518E2CFEFDFEF01C02197769999D039
:1003D000779986D02097C9F78091630080FD09C086
:1003E000112311F01150EECFEFE3FDE009951FEF5F
:1003F000E9CF83FF04C0FF77EFE3FDE0099580912B
:10040000630082FF13C0E0E8FAE1E054F10983E001
:1004100080935700E8953097C1F788E198E00FB6D0
:10042000F894A89581BD0FBE91BDFFCFE09161000A
:10043000F091620080916000803409F0C3CFE03811
:100440008AE1F80708F0BECF85E080935700E89571
:1004500010926000B7CF10928A0010928B00109219
:1004600089001092770010927800109276008093A5
:100470009D0087B3856087BBC29AC09AB89888EA06
:100480008DB980EF8EB90895909176009031E1F3A7
:10049000E0917800F0E0E758FF4F8083809178008A
:1004A0008F5F8F7080937800809176008F5F80934C
:1004B00076000895809189008823E1F3E0918A0015
:1004C000F0E0E457FF4F80918A008F5F8F70809338
:1004D0008A008091890081508093890080810895ED
:1004E00010929C00B898B29B02C0B09BFCCFB09910
:1004F00006C088EF8DB980EF8EB9779A089588EAA3
:10050000F9CF80919C00823009F479C038F48823B7
:1005100021F1813009F453C0769A0895843009F4AA
:1005200075C008F444C08530B9F7809189008031E6
:1005300090F4E0918B008FB1F0E0E457FF4F80839F
:1005400080918B008F5F8F7080938B0080918900EA
:100550008F5F8093890084E020C08FB1882331F0C1
:100560008FB1869590919D0089131CC0789BF3CF25
:10057000E091A000F091A100309739F080918900BE
:10058000882319F0809189000995E0919E00F091EF
:100590009F00309709F0099581E080939C001FB877
:1005A000B89A32C088EA8DB980E78EB9B5CF8FB1DD
:1005B000882329F088EA8DB980E78EB90895809163
:1005C00076008823B9F0E0917700F0E0E758FF4F1C
:1005D00080818FB9809177008F5F8F7080937700D3
:1005E0008091760081508093760082E080939C0019
:1005F000B89ADACF1FB8B8988EE78EB9DBCF83E010
:1006000080939C001FB8B8988EE7CFCF85E0809389
:100610009C00B898C9CF0000000000000000000056
:1006200000000000000000000000000000000000CA
:1006300000000000000011241FBECFE5D2E0DEBFA5
:10064000CDBF10E0A0E6B0E0E4EAF8E002C005901B
:100650000D92A236B107D9F70DD122C111CDEDE12E
:10066000F0E13197F1F70197D1F70895807CDB0134
:1006700030E020E0FC01E20FF31F459154914D93CF
:100680005D932E5F3F4F20343105A1F70895FC01A3
:10069000E07C93E090935700E89507B600FCFDCF0F
:1006A0000895CF93DF939B01205C3F4FFC01EB014A
:1006B000A991B991BE0141E00D0140935700E89521
:1006C00011243296C217D30791F725E0FC0120933D
:1006D0005700E89507B600FCFDCFDF91CF91089554
:1006E000CF93DF93CDB7DEB7C054D1090FB6F894DE
:1006F000DEBF0FBECDBFBE016F5F7F4F90E080E0D9
:10070000B5DF8FEF9FEF9A83898390E080E0BFDFB2
:10071000BE016F5F7F4F90E080E0C3DFC05CDF4FC2
:100720000FB6F894DEBF0FBECDBFDF91CF91089515
:100730000F931F93CF93DF93CDB7DEB7C054D1098A
:100740000FB6F894DEBF0FBECDBF10E000E000385A
:10075000F5E01F0761F4C05CDF4F0FB6F894DEBF11
:100760000FBECDBFDF91CF911F910F910895A801CA
:1007700042565F4F30E020E0C9018E7F66E046318F
:10078000560730F1E1E0F0E0EC0FFD1F8E0F9F1FE8
:100790006FEF7FEFFC01718360832E5F3F4F4E5FF1
:1007A0005F4F2034310541F78091600090916100E6
:1007B000800F911F6CDF8091600090916100BE01FD
:1007C0006F5F7F4F800F911F6CDF005C1F4FBFCFAB
:1007D000FA0165917491E1E0F0E0EC0FFD1F8E0FDE
:1007E0009F1FD8CF0F931F93CF93DF93CDB7DEB763
:1007F000C054D1090FB6F894DEBF0FBECDBF8091B3
:100800006000909161009695879581509044FE011B
:1008100031969E012F5B3F4F8F0181939193E21799
:10082000F307D9F790E080E032DFB80190E080E094
:1008300038DFC05CDF4F0FB6F894DEBF0FBECDBF10
:10084000DF91CF911F910F910895CF9387B383606C
:1008500087BBC198CAEF81E090E001DFC19A81E0D7
:1008600090E0FDDEC198C150B1F7CF910895F0E05E
:10087000E0E0099488B318BA87B38FEF87BB8AEF9B
:1008800090E0EDDE87B317BA8AEF90E0E8DEF894E7
:1008900027DF4EDFA7DFD9DFEADF90E080E00895B1
:0408A000F894FFCFFA
:0208A400801AB8
:040000030000008079
:00000001FF
