:1000000003C003C003C003C003C003C003C003C0D8
:10008000ACC2CEC2CDC2CCC2CBC2CAC2C9C2C8C227
:10009000C7C2C6C2C5C2C4C2C3C2C2C2C1C200C0F6
:1000A00011241FBECFE5D2E0CDBFDEBF10E0A0E639
:1000B000B0E0E8EFFFE102C005900D92A436B10771
:1000C000D9F720E0A4E6B0E001C01D92A83AB2073B
:1000D000E1F7E9C00F931F93CF93DF9308E610E099
:1000E000C82FD0E0C859DF4F0C171D0729F4DF9146
:1000F000CF911F910F910895BED1F80181938F0187
:10010000F3CFEF92FF920F931F93CF93DF93CDB76F
:10011000DEB729970FB6F894DEBF0FBECDBF809132
:100120006800843A09F444C020F4833A79F08FEFF0
:1001300092C0873A09F442C0883AC9F787E585D169
:100140008091670080618093670025C0FE0133962F
:1001500087E0DF011D928A95E9F78CE5898384E5C4
:100160008A8388E58C838AE18D8380EC8E838091FD
:100170006700836080936700C1988E010F5F1F4FF7
:100180007E01BAE0EB0EF11CF80181918F015DD187
:10019000E016F106C9F729960FB6F894DEBF0FBE38
:1001A000CDBFDF91CF911F910F91FF90EF900895F8
:1001B0008BE54BD1809167008460C5CF809164004E
:1001C0002091650030916600F901E80FF11D48E0CB
:1001D000480F309709F04CC05091690090916A0027
:1001E000152F190F8E5F509363009093620091E07A
:1001F0006FE57DEC0B0190935700E8951124A8E67C
:10020000B0E014969C91149713965C911397F901A2
:10021000E80FF11DF92EE52E61E00701609357000C
:10022000E8951124950F190F8E5F12968413E9CF6C
:100230008093640080917100811304C080916400F8
:10024000813430F08091670084608093670010E013
:1002500088E5FBD0812F29960FB6F894DEBF0FBE3C
:10026000CDBFDF91CF911F910F91FF90EF90EDC027
:10027000A8E6B0E010E012969C91129711965C915E
:100280001197F901E80FF11DF92EE52E61E0070144
:1002900060935700E8951124950F190F8E5F129601
:1002A0008413E9CFC5CF14BE88E181BD87E081BD4D
:1002B000F894B99A80E886BD16BC85E1ADD08BE78D
:1002C0009DE09093A3008093A20082E99DE090932B
:1002D000A5008093A40088E08093670014E12FEFCD
:1002E0003FEF80916700E9012197982F9370933039
:1002F000E1F0232B49F488B392E0892788BB1123CE
:1003000069F01150CFEFDFEF779B02C0CAD0779A28
:10031000769B02C0D6D0769A9E01E3CFE091600032
:10032000F091610009951FEFEDCF232B69F78871DC
:10033000883129F4E0916000F09161000995809185
:100340006700982F98719031B9F4846080936700AA
:10035000C19AE0ECFAE1E054F10983E080935700A0
:10036000E8953097C1F788E198E00FB6F894A89522
:1003700081BD0FBE91BDFFCF82FDEACF80916400A9
:10038000803409F046C08091650090916600803C01
:100390009A4108F03EC088B392E0892788BB20913B
:1003A00065003091660083E0F90180935700E8957D
:1003B00085E080935700E8952115310511F5E0E8B7
:1003C000FAE141E08FEF9FEF0C0140935700E89571
:1003D00011243296EE3B8AE1F80799F7909162007A
:1003E000809163008F559D409F70906C0C014093ED
:1003F0005700E895112485E0E0E8FAE18093570082
:10040000E895205C3F4F3093660020936500109282
:100410006400CFEFDFE778CF10928E0010928F004C
:1004200010928D0010927B0010927C0010927A0046
:100430008093A10087B3856087BBC29AC09AB898A1
:1004400088EA8DB980EF8EB9089590917A00903145
:10045000E1F3E0917C00F0E0E358FF4F808380916E
:100460007C008F5F8F7080937C0080917A008F5F1B
:1004700080937A00089580918D008823E1F3E091C4
:100480008E00F0E0E057FF4F80918E008F5F8F70FD
:1004900080938E0080918D00815080938D008081AB
:1004A00008951092A000B898B29B02C0B09BFCCFF8
:1004B000B09905C088EF8DB980EF8EB9089588EAAC
:1004C000FACF8091A000823009F479C038F48823F3
:1004D00021F1813009F453C0769A0895843009F4EB
:1004E00075C008F444C08530B9F780918D00803123
:1004F00090F4E0918F008FB1F0E0E057FF4F8083E0
:1005000080918F008F5F8F7080938F0080918D001E
:100510008F5F80938D0084E020C08FB1882331F0FD
:100520008FB186959091A10089131CC0789BF3CF61
:10053000E091A200F091A300309739F080918D00F6
:10054000882319F080918D000995E091A400F09125
:10055000A500309709F0099581E08093A0001FB8AD
:10056000B89A32C088EA8DB980E78EB9B5CF8FB11D
:10057000882329F088EA8DB980E78EB908958091A3
:100580007A008823B9F0E0917B00F0E0E358FF4F58
:1005900080818FB980917B008F5F8F7080937B000B
:1005A00080917A00815080937A0082E08093A0004D
:1005B000B89ADACF1FB8B8988EE78EB9DBCF83E050
:1005C0008093A0001FB8B8988EE7CFCF85E08093C6
:1005D000A000B898C9CF5F0DFFFF00000000000029
:1005E000000000000000000000000000000000000B
:1005F0000000000000000000000011241FBECFE535
:10060000D2E0DEBFCDBF10E0A0E6B0E0E8E6F8E063
:1006100002C005900D92A236B107D9F70DD122C1C3
:100620002FCDEDE1F0E13197F1F70197D1F7089582
:10063000807CDB0130E020E0FC01E20FF31F4591FC
:1006400054914D935D932E5F3F4F20343105A1F7B8
:100650000895FC01E07C93E090935700E89507B67D
:1006600000FCFDCF0895CF93DF939B01205C3F4FAB
:10067000FC01EB01A991B991BE0141E00D0140934C
:100680005700E89511243296C217D30791F725E059
:10069000FC0120935700E89507B600FCFDCFDF91E1
:1006A000CF910895CF93DF93CDB7DEB7C054D10972
:1006B0000FB6F894DEBF0FBECDBFBE016F5F7F4F98
:1006C00090E080E0B5DF8FEF9FEF9A83898390E021
:1006D00080E0BFDFBE016F5F7F4F90E080E0C3DF4F
:1006E000C05CDF4F0FB6F894DEBF0FBECDBFDF9109
:1006F000CF9108950F931F93CF93DF93CDB7DEB7BC
:10070000C054D1090FB6F894DEBF0FBECDBF10E0C4
:1007100000E00034F5E01F0761F4C05CDF4F0FB666
:10072000F894DEBF0FBECDBFDF91CF911F910F9127
:100730000895A80142565F4F30E020E0C9018E7F46
:1007400065E04A3D560730F1E1E0F0E0EC0FFD1FB7
:100750008E0F9F1F6FEF7FEFFC01718360832E5F11
:100760003F4F4E5F5F4F2034310541F7809160006D
:1007700090916100800F911F6CDF809160009091DB
:100780006100BE016F5F7F4F800F911F6CDF005CC7
:100790001F4FBFCFFA0165917491E1E0F0E0EC0FDB
:1007A000FD1F8E0F9F1FD8CF0F931F93CF93DF9303
:1007B000CDB7DEB7C054D1090FB6F894DEBF0FBE77
:1007C000CDBF809160009091610096958795815092
:1007D0009044FE0131969E012F5B3F4F8F01819324
:1007E0009193E217F307D9F790E080E032DFB80188
:1007F00090E080E038DFC05CDF4F0FB6F894DEBFDA
:100800000FBECDBFDF91CF911F910F910895CF9370
:1008100087B3836087BBC198CAEF81E090E001DFB6
:10082000C19A81E090E0FDDEC198C150B1F7CF914F
:100830000895F0E0E0E0099488B318BA87B38FEF29
:1008400087BB8AEF90E0EDDE87B317BA8AEF90E0BE
:10085000E8DEF89427DF4EDFA7DFD9DFEADF90E09C
:0808600080E00895F894FFCF39
:02086800C01AB4
:040000030000008079
:00000001FF
