:101C000021E0A0E6B0E001C01D92A632B207E1F7E4
:101C10000BC0E091A200EF5FEF73E093A200F0E051
:101C2000EA55FF4F80830895CDB7DEB7CC50CDBFC6
:101C300014BE81B5886181BD87E081BDF89451B63D
:101C400081B7845B81BF80E886BD16BC1092A2007C
:101C50001092A1001092A5001092A4001092A3006F
:101C600087B3856087BBC09AC29AB89888EA8DB955
:101C700080E78EB981E187BFE895312C412C00E0E7
:101C8000F12CD12CC12C10E0AA24AA94B12C3AE05A
:101C9000E32E779B0FC06F9B0DC0B8981092A000E9
:101CA000B29B02C0B09BFCCFB09915C088EF8DB934
:101CB00080EF8EB9769BE1C06E9BDFC08091A00063
:101CC000823009F420C148F4882301F1813009F4FD
:101CD000FCC0769A0FC188EAEACF843009F41AC1B1
:101CE00008F4C3C08530A9F7E091A400EF5FEF735B
:101CF000E093A4008FB1F0E0EA51FF4F8083809120
:101D0000A5008F5F8093A50084E065C08FB1882314
:101D100029F08FB186958B3009F0F2C08FB1982FE2
:101D2000917080FFF1CF2091A5008091A300E0E6A3
:101D3000F0E0215078F48093A3001092A5008091E8
:101D40006000833809F44CC070F48238A9F08FEF3A
:101D500060DF40C08F5F8F73A82FB0E0AA51BF4FE4
:101D60003C913193E6CF853809F43EC0863879F747
:101D700089E74FDF09602EC08DE7898384E58A8378
:101D800081E08B8386E08C8382E68D831E828CE1EA
:101D90008F831886EFEFFBE184918987EEEFFBE1FB
:101DA00084918A8789E0F0E0E0E080935700849195
:101DB0008B8781B78C870160CE0101964C013E0173
:101DC0009DE0690E711CF40181914F0122DF6814BE
:101DD0007904C9F781E08093A0001FB8B89A98C031
:101DE0008CE717DF0460F6CFF601EF0DF11D10E070
:101DF000309789F4F394F39440906100309062003E
:101E000081E02FEF3DEC090180935700E895112404
:101E1000142D130D93E0A92FB0E0A05ABF4F9F2CB3
:101E200011968C9111974C91F601E90DF11D382F07
:101E3000242F51E0090150935700E8951124840F95
:101E4000180F939493941296892F8F19890D8132CC
:101E500038F380918100181711F0046010E08AE7D0
:101E6000D8DE812FD6DEF92CB5CF8FB1882369F16A
:101E700088EA8DB980E78EB911E000FF86C0112392
:101E800009F407CF802F86958695869541F051BE3F
:101E900080E886BD83E086BDEFEFFDE0099502FF97
:101EA0003EC0E0E0FCE1E054F10983E0809357009C
:101EB000E8953097C1F751BE88E198E00FB6F894E5
:101EC000A89581BD0FBE91BDFFCFE091A10080918B
:101ED000A2008E1789F0EF5FEF73E093A100F0E0AE
:101EE000EA55FF4F80818FB982E08093A000B89AB5
:101EF00080E78EB910E0C1CF1FB8B8988EE78EB9D1
:101F000088EA8DB9F5CF83E08093A0001FB8B89818
:101F10008EE7EFCF85E08093A000B898E9CFF0E49A
:101F2000FF1231C080ECC8168BE1D80660F585E061
:101F3000F60180935700E895C114D10401F5E0EC57
:101F4000FBE121E08FEF9FEF0C0120935700E89514
:101F500011243296EE3F8BE1F80799F7932D842DEB
:101F60008F5F9D409F70906C0C0120935700E89507
:101F7000112485E0E0ECFBE180935700E89590E4C4
:101F8000C90ED11CF12C10E084CEA114B10421F0B3
:101F9000E1E0AE1AB1087DCEEE2029F0EA94AA2441
:101FA000AA94BA2C76CE51BE80E886BD83E086BD69
:101FB000EFEFFDE00995AA24AA94BA2CEE24EA9446
:021FC00068CEE9
:0400000300001C00DD
:00000001FF
