:100000000EC028C027C026C025C024C023C022C0DF
:1000100021C020C01FC01EC01DC01CC01BC0112499
:100020001FBECFE5D2E0DEBFCDBF10E0A0E6B0E05E
:10003000E6EBF4E002C005900D92A636B107D9F7C1
:1000400020E0A6E6B0E001C01D92A836B207E1F7B5
:10005000DDD02FC2D5CFF89480E886BD83E086BD81
:1000600017BA18BAB99A08958F929F92AF92BF9219
:10007000CF92DF92EF92FF92C19A792F682F990F5A
:10008000880B990BF7D0972E862EB92EA82E20E03C
:1000900030E04AEF54E47AD1D72EC62EF92EE82E5E
:1000A00020E030E040E85FE3B3D087FD5BC020E0B4
:1000B0003FEF4FE757E49F2D8E2D7D2D6C2D62D1A4
:1000C00018160CF045C020E030E040E251E49B2DD2
:1000D0008A2D792D682D5AD19FD028EC30E06115FA
:1000E000710579F5C19820E030E040E85FE39F2D8D
:1000F0008E2D7D2D6C2D8CD087FD48C020E03FEFEC
:100100004FE757E49F2D8E2D7D2D6C2D3BD118167A
:100110009CF520E030E040E251E49B2D8A2D792DC2
:10012000682D34D179D028EC30E061157105E9F4FF
:10013000FF90EF90DF90CF90BF90AF909F908F9007
:100140000895932F822F0197F1F761507109C7CF5E
:100150009F2D8E2D7D2D6C2D5FD0972F862F019793
:10016000F1F7C0CF61E070E0F8CF932F822F0197B5
:10017000F1F761507109D9CF9F2D8E2D7D2D6C2DFA
:100180004BD0972F862F0197F1F7D2CF61E070E027
:10019000F8CFF92FE82F8081833551F028F4803291
:1001A000C9F08F3471F008958F3659F08337E1F438
:1001B00082E390E059DF82E390E056DF82E390E053
:1001C00053CF84E690E050DF84E690E04DDF84E694
:1001D00090E0F6CF80ED97E028EC30E0F32FE22FAF
:1001E0003197F1F70197D1F70895109267001092B7
:1001F000660080E690E0CDDF82E690E0CADF80E630
:1002000090E0C7DF84E690E0C4DFEFCF24DFEDDFCE
:100210006CD008F481E0089594D088F09F5790F056
:10022000B92F9927B751A0F0D1F0660F771F881F1B
:10023000991F1AF0BA95C9F712C0B13081F09BD05E
:10024000B1E0089598C0672F782F8827B85F39F0FC
:10025000B93FCCF3869577956795B395D9F73EF47A
:1002600090958095709561957F4F8F4F9F4F089522
:10027000E89409C097FB3EF4909580957095619540
:100280007F4F8F4F9F4F9923A9F0F92F96E9BB27F6
:100290009395F695879577956795B795F111F8CF72
:1002A000FAF4BB0F11F460FF1BC06F5F7F4F8F4FDD
:1002B0009F4F16C0882311F096E911C0772321F0D3
:1002C0009EE8872F762F05C0662371F096E8862F6B
:1002D00070E060E02AF09A95660F771F881FDAF7C2
:1002E000880F9695879597F90895990F0008550FEF
:1002F000AA0BE0E8FEEF16161706E807F907C0F0AC
:1003000012161306E407F50798F0621B730B840BB3
:10031000950B39F40A2661F0232B242B252B21F48D
:1003200008950A2609F4A140A6958FEF811D811D2D
:10033000089557FD9058440F551F59F05F3F71F0D5
:100340004795880F97FB991F61F09F3F79F087953C
:100350000895121613061406551FF2CF4695F1DFC5
:1003600008C0161617061806991FF1CF8695710555
:10037000610508940895E894BB2766277727CB0189
:1003800097F90895B2DF08F48FEF08950AD080C07E
:1003900071D028F076D018F0952309F062C067C0BC
:1003A000EBCFC7DFA8F39923D9F35523C9F3950FF2
:1003B00050E0551FAA27EE27FF27BB2700240894EB
:1003C000679520F4E20FF31FB41F0A1E220F331F9C
:1003D000441FAA1F6695A9F7779530F4F30FB41F51
:1003E0000A1E121E08F46395330F441FAA1F221F12
:1003F000769599F7879520F4B40F0A1E121E631F95
:10040000440FAA1F221F331F8695A9F7862F712D2F
:10041000602D11249F5750408AF0E1F088234AF064
:10042000EE0FFF1FBB1F661F771F881F91505040A4
:10043000A9F79E3F510570F014C09ECF5F3FECF3CB
:10044000983EDCF3869577956795B795F795E79590
:100450009F5FC1F7FE2B880F911D9695879597F9A1
:10046000089597F99F6780E870E060E008959FEF36
:1004700080EC089500240A9416161706180609063B
:10048000089500240A94121613061406050608950A
:10049000092E0394000C11F4882352F0BB0F40F492
:1004A000BF2B11F460FF04C06F5F7F4F8F4F9F4FD2
:0604B0000895F894FFCF4F
:0604B60073006F0020003E
:00000001FF
