:101B000000C011241FBECFE5D2E0CDBFDEBF10E084
:101B1000A0E6B0E0ECEEFFE102C005900D92A23627
:101B2000B107D9F720E0A2E6B0E001C01D92A43AC7
:101B3000B207E1F7CBC110927600109277001092B5
:101B400075001092630010926400109262008093FE
:101B5000890087B3856087BBC29AC09AB89888EA23
:101B60008DB980EF8EB90895909162009031E1F3C4
:101B7000E0916400F0E0EB59FF4F808380916400B6
:101B80008F5F8F7080936400809162008F5F80937D
:101B900062000895809175008823E1F3E09176005A
:101BA000F0E0E858FF4F809176008F5F8F70809350
:101BB0007600809175008150809375008081089532
:101BC00010928800B898B29B02C0B09BFCCFB0992D
:101BD00006C088EF8DB980EF8EB9779A089588EAAC
:101BE000F9CF80918800823009F479C038F48823D5
:101BF00021F1813009F453C0769A0895843009F4B4
:101C000075C008F444C08530B9F780917500803103
:101C100090F4E09177008FB1F0E0E858FF4F8083B7
:101C2000809177008F5F8F7080937700809175002F
:101C30008F5F8093750084E020C08FB1882331F0DE
:101C40008FB186959091890089131CC0789BF3CF42
:101C5000E091A200F091A300309739F080917500D7
:101C6000882319F0809175000995E091A000F0910A
:101C7000A100309709F0099581E0809388001FB892
:101C8000B89A32C088EA8DB980E78EB9B5CF8FB1E6
:101C9000882329F088EA8DB980E78EB9089580916C
:101CA00062008823B9F0E0916300F0E0EB59FF4F48
:101CB00080818FB9809163008F5F8F708093630004
:101CC0008091620081508093620082E0809388005E
:101CD000B89ADACF1FB8B8988EE78EB9DBCF83E019
:101CE000809388001FB8B8988EE7CFCF85E08093A7
:101CF0008800B898C9CF0F931F93CF93DF930EE856
:101D000010E0C82FD0E0C257DF4F0C171D0729F491
:101D1000DF91CF911F910F9108953CDFF8018193DE
:101D20008F01F3CFEF92FF920F931F93CF93DF9327
:101D3000CDB7DEB729970FB6F894DEBF0FBECDBF83
:101D400080918E00833809F446C020F4823879F0FF
:101D50008FEF94C0853809F444C08638C9F789E705
:101D600003DF80918D00886080938D0027C01F82E3
:101D70008DE7898384E58A8381E08B838C8382E28B
:101D80008D838BE18E83EFEFFAE184918887EEEF0C
:101D9000FAE18491898780918D00816080938D0024
:101DA0008E010F5F1F4F7E018AE0E80EF11CF801E3
:101DB00081918F01D9DEE016F106C9F729960FB699
:101DC000F894DEBF0FBECDBFDF91CF911F910F9171
:101DD000FF90EF9008958CE7C7DE80918D008460BE
:101DE000C3CF80918A0020918B0030918C00F90143
:101DF000E80FF11D48E0480F309709F04CC05091B2
:101E00008F0090919000152F190F8E5F50936100F5
:101E10009093600091E06FE77DEC0B019093570089
:101E2000E8951124AEE8B0E014969C9114971396AF
:101E30005C911397F901E80FF11DF92EE52E61E091
:101E4000070160935700E8951124950F190F8E5FD5
:101E500012968413E9CF80938A00809197008113B2
:101E600004C080918A00813430F080918D008460BC
:101E700080938D0010E08AE777DE812F29960FB6D8
:101E8000F894DEBF0FBECDBFDF91CF911F910F91B0
:101E9000FF90EF9069CEAEE8B0E010E012969C9112
:101EA000129711965C911197F901E80FF11DF92E27
:101EB000E52E61E0070160935700E8951124950F26
:101EC000190F8E5F12968413E9CFC5CF14BE88E137
:101ED00081BD87E081BDF89480E886BD16BC88E0AE
:101EE0002ADE8BE79EE09093A3008093A20082E914
:101EF0009EE09093A1008093A00081E187BFE895C8
:101F000018E2CFEFDFEF01C0219776996ADE77996B
:101F100057DE2097C9F780918D0080FD09C01123FD
:101F200011F01150EECFEFE7FDE009951FEFE9CF7B
:101F300083FF04C0FF77EFE7FDE0099580918D00F6
:101F400082FF13C0E0E0FBE1E054F10983E08093FD
:101F50005700E8953097C1F788E198E00FB6F894FC
:101F6000A89581BD0FBE91BDFFCF20918B00309110
:101F70008C0080918A00803409F0C3CF203CFAE1C4
:101F80003F0708F0BECF85E0F90180935700E89540
:101F90002115310511F590916000809161008F57F6
:101FA0009D409F70906CE0ECFAE141E06FEF7FEFB5
:101FB0000B0140935700E89511243296EE3F5AE109
:101FC000F50799F70C0140935700E895112485E037
:101FD000E0ECFAE180935700E895205C3F4F3093A6
:0C1FE0008C0020938B0010928A008BCFA5
:021FEC00FFFFF5
:0400000300001B00DE
:00000001FF
