:101A000000C011241FBECFE5D2E0CDBFDEBF10E085
:101A1000A0E6B0E0E6ECFFE102C005900D92A23630
:101A2000B107D9F720E0A2E6B0E001C01D92A43AC8
:101A3000B207E1F738C21092760010927700109248
:101A400075001092630010926400109262008093FF
:101A5000890087B3856087BBC29AC09AB89888EA24
:101A60008DB980EF8EB90895909162009031E1F3C5
:101A7000E0916400F0E0EB59FF4F808380916400B7
:101A80008F5F8F7080936400809162008F5F80937E
:101A900062000895809175008823E1F3E09176005B
:101AA000F0E0E858FF4F809176008F5F8F70809351
:101AB0007600809175008150809375008081089533
:101AC00010928800B898B29B02C0B09BFCCFB0992E
:101AD00006C088EF8DB980EF8EB9779A089588EAAD
:101AE000F9CF80918800823009F477C038F48823D8
:101AF00021F1813009F451C0769A0895843009F4B7
:101B000073C008F442C08530B9F780917500803108
:101B100090F4E09177008FB1F0E0E858FF4F8083B8
:101B2000809177008F5F8F70809377008091750030
:101B30008F5F8093750084E01EC08FB186958F7390
:101B40009091890098131CC0789BF5CFE091A2007A
:101B5000F091A300309739F080917500882319F037
:101B6000809175000995E091A000F091A100309757
:101B700009F0099581E0809388001FB8B89A32C0B7
:101B800088EA8DB980E78EB9B7CF8FB1882329F065
:101B900088EA8DB980E78EB9089580916200882324
:101BA000B9F0E0916300F0E0EB59FF4F80818FB90D
:101BB000809163008F5F8F708093630080916200DB
:101BC00081508093620082E080938800B89ADACFD7
:101BD0001FB8B8988EE78EB9DBCF83E0809388007A
:101BE0001FB8B8988EE7CFCF85E080938800B8986B
:101BF000C9CF0F931F93CF93DF930EE810E0C82F48
:101C0000D0E0C257DF4F0C171D0729F4DF91CF91A9
:101C10001F910F9108953EDFF80181938F01F3CF5B
:101C2000AF92BF92CF92DF92EF92FF920F931F93EA
:101C3000CF93DF93CDB7DEB729970FB6F894DEBF09
:101C40000FBECDBFEDB6FEB680918E00853809F48B
:101C5000B8C040F4823809F468C0833809F4ABC0D6
:101C60008FEFFCC0863809F49EC08738C9F70DB7DE
:101C70001EB73091910042E0D42ED30EED2DF0E04E
:101C80008DB79EB78E1B9F0B0FB6F8949EBF0FBEED
:101C90008DBFADB7BEB7119690918F004091900067
:101CA000232F290F2957240F809192002813F8C061
:101CB0008FEF830F843108F0F3C0319788E78C935E
:101CC000892F90E0982F8827840F911D90938C0086
:101CD00080938B005F01AA0EBB1EF5011082782F46
:101CE000AD014F5F5F4F282F692F822F962FFC0188
:101CF0006591CF01FA016193AF01F5012081260FB3
:101D00002083282F692F81E0820F871B381768F7FF
:101D1000CA2E5D018A2D8C198D1508F4BCC00FB632
:101D2000F8941EBF0FBE0DBF28C01F828DE78983A8
:101D300084E58A8381E08B8382E08C8382EA8D83D1
:101D40008AE18E83EFEFF9E184918887EEEFF9E184
:101D50008491898780918D00816080938D008E01B0
:101D60000F5F1F4F6E018AE0C80ED11CF8018191F0
:101D70008F017ADEC016D106C9F70FB6F894FEBE01
:101D80000FBEEDBE29960FB6F894DEBF0FBECDBFD5
:101D9000DF91CF911F910F91FF90EF90DF90CF9047
:101DA000BF90AF90089589E75FDE80918D008860D5
:101DB00080938D00E2CF8CE757DE80918D008460A8
:101DC000F7CF80918A0020918B0030918C00F9012F
:101DD000E80FF11D48E0480F309709F041C08E5FD1
:101DE00050918F0090919000152F190F5093610022
:101DF0009093600091E06FEF7CEC0B0190935700A3
:101E0000E8951124AEE8B0E014969C9114971396CF
:101E10005C911397F901E80FF11DD92EC52E61E0F1
:101E2000060160935700E8951124950F190F8E5FF6
:101E300012968413E9CF80938A00809197008113D2
:101E400004C080918A00813430F080918D008460DC
:101E500080938D0010E08AE707DE812F05DE8DCFAD
:101E6000AEE8B0E010E012969C91129711965C914A
:101E70001197F901E80FF11DD92EC52E61E0060179
:101E800060935700E8951124950F190F8E5F1296F5
:101E90008413E9CFD0CFF50181915F01E5DD3ACF21
:101EA0008FEFE2DD3CCF14BE88E181BD87E081BDCC
:101EB000F89480E886BD16BC8EE0BDDD89EF9DE01C
:101EC0009093A3008093A20080E19EE09093A100F4
:101ED0008093A00081E187BFE89518E2CFEFDFEFA4
:101EE00001C021977699FDDD7799EADD2097C9F742
:101EF00080918D0080FD09C0112311F01150EECFAB
:101F0000EFEFFCE009951FEFE9CF83FF04C0FF77F7
:101F1000EFEFFCE0099580918D0082FF13C0E0E0B7
:101F2000FAE1E054F10983E080935700E895309797
:101F3000C1F788E198E00FB6F894A89581BD0FBE6F
:101F400091BDFFCF20918B0030918C0080918A0051
:101F5000803409F0C3CF203CF9E13F0708F0BECF41
:101F600085E0F90180935700E8952115310511F5B9
:101F700090916000809161008F5F9C409F70906C99
:101F8000E0ECF9E141E06FEF7FEF0B014093570088
:101F9000E89511243296EE3F59E1F50799F70C01C7
:101FA00040935700E895112485E0E0ECF9E1809337
:101FB0005700E895205C3F4F30938C0020938B00B6
:061FC00010928A008BCF95
:021FC600FFFF1B
:0400000300001A00DF
:00000001FF
