:100C800000C011241FBECFE5D2E0CDBFDEBF10E013
:100C9000A0E6B0E0E2E3F2E102C005900D92A436D6
:100CA000B107D9F720E0A4E6B0E001C01D92A83A50
:100CB000B207E1F7E9C00F931F93CF93DF9308E6E4
:100CC00010E0C82FD0E0C859DF4F0C171D0729F4DA
:100CD000DF91CF911F910F910895FBD1F80181937E
:100CE0008F01F3CFEF92FF920F931F93CF93DF9378
:100CF000CDB7DEB729970FB6F894DEBF0FBECDBFD4
:100D000080916800843A09F444C020F4833A79F071
:100D10008FEF92C0873A09F442C0883AC9F787E555
:100D2000C2D18091670080618093670025C0FE0179
:100D3000339687E0DF011D928A95E9F78CE5898378
:100D400084E58A8389E08C838CE08D8380E88E83C0
:100D500080916700836080936700C1988E010F5F68
:100D60001F4F7E01BAE0EB0EF11CF80181918F015B
:100D70009AD1E016F106C9F729960FB6F894DEBFAE
:100D80000FBECDBFDF91CF911F910F91FF90EF90DC
:100D900008958BE588D1809167008460C5CF8091EC
:100DA00064002091650030916600F901E80FF11DA3
:100DB00048E0480F309709F04CC05091690090917D
:100DC0006A00152F190F8E5F509363009093620095
:100DD00091E06FE376EC0B0190935700E8951124B6
:100DE000A8E6B0E014969C91149713965C91139723
:100DF000F901E80FF11DF92EE52E61E0070160937E
:100E00005700E8951124950F190F8E5F12968413E1
:100E1000E9CF8093640080917100811304C08091B8
:100E20006400813430F080916700846080936700B3
:100E300010E088E538D1812F29960FB6F894DEBFEF
:100E40000FBECDBFDF91CF911F910F91FF90EF901B
:100E50002AC1A8E6B0E010E012969C911297119674
:100E60005C911197F901E80FF11DF92EE52E61E073
:100E7000070160935700E8951124950F190F8E5FB5
:100E800012968413E9CFC5CF14BE88E181BD87E0F7
:100E900081BDF894B99A80E886BD16BC85E1EAD098
:100EA0008BE596E09093A3008093A20082E796E002
:100EB0009093A5008093A40088E08093670014E1DC
:100EC0002FEF3FEF80916700E9012197982F9370F2
:100ED0009330E1F0232B49F488B392E0892788BB53
:100EE000112369F01150CFEFDFEF779B02C007D1DC
:100EF000779A769B02C013D1769A9E01E3CFE09158
:100F00006000F091610009951FEFEDCF232B69F789
:100F10008871883129F4E0916000F09161000995B1
:100F200080916700982F98719031D1F484608093FC
:100F30006700C19AE0E8FCE0E054F10983E08093A7
:100F40005700E8953097C1F787B7806187BF88E180
:100F500098E00FB6F894A89581BD0FBE91BDFFCF64
:100F600082FDE7CF80916400803409F0BCCF80918E
:100F700065009091660080389C4008F0B4CF88B33B
:100F800092E0892788BB209165003091660083E05C
:100F9000F90180935700E89585E080935700E89524
:100FA00090916200809163008F5396409F70906C87
:100FB0002115310519F5E0E4FCE041E06FEF7FEF2A
:100FC0000B0140935700E89511243296EE375CE010
:100FD000F50799F70C0140935700E895112485E037
:100FE000E0E4FCE080935700E895205C3F4F3093AD
:100FF0006600209365001092640075CF20346CE089
:10100000360799F7A0E4BCE0FD01659171E04491D9
:1010100050E0542F4427460F511DFD010A017093E3
:101020005700E89511241296AE37FCE0BF0761F730
:10103000FD0164914FE75CE0FA01449150E0542FC8
:101040004427460F511D4F3F5F4F71F4FD010C01C6
:1010500070935700E8951124E0E4FCE083E080936E
:101060005700E89585E0BECF80916700846080934B
:101070006700BBCF10928E0010928F0010928D00EF
:1010800010927B0010927C0010927A008093A10055
:1010900087B3856087BBC29AC09AB89888EA8DB931
:1010A00080EF8EB9089590917A009031E1F3E0914C
:1010B0007C00F0E0E358FF4F808380917C008F5FDD
:1010C0008F7080937C0080917A008F5F80937A008C
:1010D000089580918D008823E1F3E0918E00F0E087
:1010E000E057FF4F80918E008F5F8F7080938E004E
:1010F00080918D00815080938D00808108951092A1
:10110000A000B898B29B02C0B09BFCCFB09905C0BC
:1011100088EF8DB980EF8EB9089588EAFACF809173
:10112000A000823009F479C038F4882321F181309D
:1011300009F453C0769A0895843009F475C008F410
:1011400044C08530B9F780918D00803190F4E091F2
:101150008F008FB1F0E0E057FF4F808380918F00C8
:101160008F5F8F7080938F0080918D008F5F809351
:101170008D0084E020C08FB1882331F08FB1869537
:101180009091A10089131CC0789BF3CFE091A2003D
:10119000F091A300309739F080918D00882319F0E9
:1011A00080918D000995E091A400F091A500309701
:1011B00009F0099581E08093A0001FB8B89A32C069
:1011C00088EA8DB980E78EB9B5CF8FB1882329F031
:1011D00088EA8DB980E78EB9089580917A008823D6
:1011E000B9F0E0917B00F0E0E358FF4F80818FB9C8
:1011F00080917B008F5F8F7080937B0080917A005D
:10120000815080937A0082E08093A000B89ADACF70
:101210001FB8B8988EE78EB9DBCF83E08093A0002B
:101220001FB8B8988EE7CFCF85E08093A000B8981C
:02123000C9CF24
:041232003F06FFFF75
:0400000300000C806D
:00000001FF
