:101B000000C011241FBECFE5D2E0CDBFDEBF10E084
:101B1000A0E6B0E0E0EFFFE102C005900D92A23632
:101B2000B107D9F720E0A2E6B0E001C01D92A63AC5
:101B3000B207E1F7EBC00F931F93CF93DF9306E655
:101B400010E0C82FD0E0CA59DF4F0C171D0729F449
:101B5000DF91CF911F910F9108959AD1F801819350
:101B60008F01F3CFEF92FF920F931F93CF93DF93E9
:101B7000CDB7DEB729970FB6F894DEBF0FBECDBF45
:101B800080916600843A09F446C020F4833A79F0E3
:101B90008FEF94C0873A09F444C0883AC9F787E5C3
:101BA00061D18091650088608093650027C01F82A5
:101BB0008CE5898384E58A8381E08B838C8382E250
:101BC0008D838BE18E83EFEFFAE184918887EEEFCE
:101BD000FAE1849189878091650081608093650036
:101BE0008E010F5F1F4F7E018AE0E80EF11CF801A5
:101BF00081918F0137D1E016F106C9F729960FB60A
:101C0000F894DEBF0FBECDBFDF91CF911F910F9132
:101C1000FF90EF9008958BE525D180916500846059
:101C2000C3CF809162002091630030916400F9017C
:101C3000E80FF11D48E0480F309709F04CC0509173
:101C4000670090916800152F190F8E5F5093610007
:101C50009093600091E06FE77DEC0B01909357004B
:101C6000E8951124A6E6B0E014969C91149713967B
:101C70005C911397F901E80FF11DF92EE52E61E053
:101C8000070160935700E8951124950F190F8E5F97
:101C900012968413E9CF8093620080916F008113C4
:101CA00004C080916200813430F0809165008460CE
:101CB0008093650010E088E5D5D0812F29960FB676
:101CC000F894DEBF0FBECDBFDF91CF911F910F9172
:101CD000FF90EF90C7C0A6E6B0E010E012969C918E
:101CE000129711965C911197F901E80FF11DF92EE9
:101CF000E52E61E0070160935700E8951124950FE8
:101D0000190F8E5F12968413E9CFC5CF14BE88E1F8
:101D100081BD87E081BDF89480E886BD16BC88E06F
:101D200088D08BE99DE09093A1008093A00082EB86
:101D30009DE09093A3008093A20081E187BFE89586
:101D400018E2CFEFDFEF209751F02197779B02C089
:101D5000B5D0779A769BF7CFC1D0769AF4CF8091A1
:101D6000650080FD0BC0112321F01150CFEFDFEF94
:101D7000EDCFEFE7FDE009951FEFF8CF83FF05C03A
:101D8000FF77EFE7FDE00995FFCF82FF13C0E0E0AA
:101D9000FBE1E054F10983E080935700E895309728
:101DA000C1F788E198E00FB6F894A89581BD0FBE01
:101DB00091BDFFCF2091630030916400809162005B
:101DC0008034A1F6203CFAE13F0780F685E0F90176
:101DD00080935700E89590916000809161002115F3
:101DE0003105F1F4E0ECFAE141E06FEF7FEF0B0138
:101DF00040935700E89511243296EE3F5AE1F507DB
:101E000099F78F579D409F70906C0C01409357003D
:101E1000E895112485E0E0ECFAE180935700E8951D
:101E2000205C3F4F30936400209363001092620067
:101E30009DCF10928C0010928D0010928B0010920A
:101E4000790010927A001092780080939F0087B3F7
:101E5000856087BBC29AC09AB89888EA8DB980EF2E
:101E60008EB90895909178009031E1F3E0917A0075
:101E7000F0E0E558FF4F808380917A008F5F8F708C
:101E800080937A00809178008F5F80937800089526
:101E900080918B008823E1F3E0918C00F0E0E25721
:101EA000FF4F80918C008F5F8F7080938C008091AA
:101EB0008B00815080938B008081089510929E004A
:101EC000B898B29B02C0B09BFCCFB09905C088EF18
:101ED0008DB980EF8EB9089588EAFACF80919E007F
:101EE000823009F479C038F4882321F1813009F473
:101EF00053C0769A0895843009F475C008F444C03C
:101F00008530B9F780918B00803190F4E0918D009D
:101F10008FB1F0E0E257FF4F808380918D008F5F9B
:101F20008F7080938D0080918B008F5F80938B00EA
:101F300084E020C08FB1882331F08FB186959091D5
:101F40009F0089131CC0789BF3CFE091A000F09113
:101F5000A100309739F080918B00882319F080918F
:101F60008B000995E091A200F091A300309709F051
:101F7000099581E080939E001FB8B89A32C088EA24
:101F80008DB980E78EB9B5CF8FB1882329F088EA63
:101F90008DB980E78EB90895809178008823B9F0D3
:101FA000E0917900F0E0E558FF4F80818FB9809192
:101FB00079008F5F8F7080937900809178008150D5
:101FC0008093780082E080939E00B89ADACF1FB8A1
:101FD000B8988EE78EB9DBCF83E080939E001FB860
:101FE000B8988EE7CFCF85E080939E00B898C9CF90
:021FF000FFFFF1
:0400000300001B00DE
:00000001FF
