:101AC00000C011241FBECFE5D2E0CDBFDEBF10E0C5
:101AD000A0E6B0E0E6ECFFE102C005900D92A23670
:101AE000B107D9F720E0A2E6B0E001C01D92A43A08
:101AF000B207E1F7F6C00F931F93CF93DF9306E68B
:101B000010E0C82FD0E0CA59DF4F0C171D0729F489
:101B1000DF91CF911F910F910895A4D1F801819386
:101B20008F01F3CFEF92FF920F931F93CF93DF9329
:101B3000CDB7DEB729970FB6F894DEBF0FBECDBF85
:101B400080916600843A09F44AC038F4813809F477
:101B5000C1C0833A79F08FEF95C0873A09F445C048
:101B6000883AC9F787E568D18091650088608093DD
:101B7000650028C08CE5898384E58A8381E08B83B6
:101B80008C8382E38D838AE18E8380EC8F83EFEBFD
:101B9000FAE184918887EEEBFAE18491898780915C
:101BA00065008260809365008E010F5F1F4F7E018C
:101BB0008AE0E80EF11CF80181918F013DD1E01619
:101BC000F106C9F729960FB6F894DEBF0FBECDBF58
:101BD000DF91CF911F910F91FF90EF9008958BE5CA
:101BE0002BD1809165008460C2CF809162002091EA
:101BF000630030916400F901E80FF11D48E0480FDF
:101C0000309709F04CC05091670090916800152FF3
:101C1000190F8E5F509361009093600091E06FE523
:101C20007DEC0B0190935700E8951124A6E6B0E0F7
:101C300014969C91149713965C911397F901E80FF1
:101C4000F11DF92EE52E61E0070160935700E8953C
:101C50001124950F190F8E5F12968413E9CF80938C
:101C6000620080916F00811304C080916200813412
:101C700030F08091650084608093650010E088E515
:101C8000DBD0812F29960FB6F894DEBF0FBECDBFF3
:101C9000DF91CF911F910F91FF90EF90CDC0A6E6FD
:101CA000B0E010E012969C91129711965C911197FA
:101CB000F901E80FF11DF92EE52E61E007016093AF
:101CC0005700E8951124950F190F8E5F1296841313
:101CD000E9CFC5CF809165008160809365008EE774
:101CE000D1CF14BE88E181BD87E081BDF89480E842
:101CF00086BD16BC88E087D08BE79DE09093A3005B
:101D00008093A20082E99DE09093A1008093A000BF
:101D100081E187BFE89518E2CFEFDFEF01C021979F
:101D20007699C7D07799B4D02097C9F7809165008C
:101D3000982F9370933049F0112311F01150ECCF8C
:101D4000EFE5FDE009951FEFE7CF83FF04C0FF77C4
:101D5000EFE5FDE009958091650082FF13C0E0EC9E
:101D6000FAE1E054F10983E080935700E895309759
:101D7000C1F788E198E00FB6F894A89581BD0FBE31
:101D800091BDFFCF2091630030916400809162008B
:101D9000803409F0C1CF2038FAE13F0708F0BCCF0A
:101DA00085E0F90180935700E8952115310511F57B
:101DB00090916000809161008F559D409F70906C64
:101DC000E0E8FAE141E06FEF7FEF0B01409357004D
:101DD000E89511243296EE3B5AE1F50799F70C018C
:101DE00040935700E895112485E0E0E8FAE18093FC
:101DF0005700E895205C3F4F3093640020936300C8
:101E00001092620089CF10928C0010928D00109277
:101E10008B001092790010927A00109278008093D3
:101E20009F0087B3856087BBC29AC09AB89888EA3A
:101E30008DB980EF8EB90895909178009031E1F3DB
:101E4000E0917A00F0E0E558FF4F808380917A00BE
:101E50008F5F8F7080937A00809178008F5F80937E
:101E60007800089580918B008823E1F3E0918C0045
:101E7000F0E0E257FF4F80918C008F5F8F7080936E
:101E80008C0080918B00815080938B00808108951D
:101E900010929E00B898B29B02C0B09BFCCFB09944
:101EA00006C088EF8DB980EF8EB9779A089588EAD9
:101EB000F9CF80919E00823009F479C038F48823EC
:101EC00021F1813009F453C0769A0895843009F4E1
:101ED00075C008F444C08530B9F780918B0080311B
:101EE00090F4E0918D008FB1F0E0E257FF4F8083D6
:101EF00080918D008F5F8F7080938D0080918B001B
:101F00008F5F80938B0084E020C08FB1882331F0F5
:101F10008FB1869590919F0089131CC0789BF3CF59
:101F2000E091A200F091A300309739F080918B00EE
:101F3000882319F080918B000995E091A000F09121
:101F4000A100309709F0099581E080939E001FB8A9
:101F5000B89A32C088EA8DB980E78EB9B5CF8FB113
:101F6000882329F088EA8DB980E78EB90895809199
:101F700078008823B9F0E0917900F0E0E558FF4F50
:101F800080818FB9809179008F5F8F708093790005
:101F90008091780081508093780082E080939E0049
:101FA000B89ADACF1FB8B8988EE78EB9DBCF83E046
:101FB00080939E001FB8B8988EE7CFCF85E08093BE
:061FC0009E00B898C9CF95
:021FC600FFFF1B
:0400000300001AC01F
:00000001FF
