:101A000000C011241FBECFE5D2E0CDBFDEBF10E085
:101A1000A0E6B0E0E4ECFFE102C005900D92A23632
:101A2000B107D9F720E0A2E6B0E001C01D92A43AC8
:101A3000B207E1F757C10F931F93CF93DF9306E6E9
:101A400010E0C82FD0E0CA59DF4F0C171D0729F44A
:101A5000DF91CF911F910F91089503D2F8018193E7
:101A60008F01F3CFAF92BF92CF92DF92EF92FF92AE
:101A70000F931F93CF93DF93CDB7DEB729970FB6A0
:101A8000F894DEBF0FBECDBFEDB6FEB68091660006
:101A9000843A09F452C038F4863509F4BFC0833A59
:101AA00079F08FEFB9C0873A09F44DC0883AC9F789
:101AB00087E5C1D18091650088608093650027C06B
:101AC0001F828CE5898384E58A8381E08B838C8304
:101AD00082EA8D838AE18E83EFEFF9E18491888732
:101AE000EEEFF9E1849189878091650081608093B0
:101AF00065008E010F5F1F4F6E018AE0C80ED11C7A
:101B0000F80181918F0197D1C016D106C9F70FB6A0
:101B1000F894FEBE0FBEEDBE29960FB6F894DEBF58
:101B20000FBECDBFDF91CF911F910F91FF90EF902E
:101B3000DF90CF90BF90AF9008958BE57CD18091DE
:101B400065008460BACF809162002091630030917B
:101B50006400F901E80FF11D48E0480F309779F56E
:101B60005091670090916800152F190F8E5F509368
:101B700061009093600091E06FEF7CEC0B0190931B
:101B80005700E8951124A6E6B0E014969C911497AE
:101B900013965C911397F901E80FF11DD92EC52E0C
:101BA00061E0060160935700E8951124950F190F25
:101BB0008E5F12968413E9CF809362001CC0A6E664
:101BC000B0E010E012969C91129711965C911197DB
:101BD000F901E80FF11DD92EC52E61E006016093D1
:101BE0005700E8951124950F190F8E5F1296481330
:101BF000E9CF4093620080916F00811304C080910F
:101C00006200813430F080916500846080936500CB
:101C100010E088E510D1812F0ED179CF0DB71EB716
:101C20003091690042E0D42ED30EED2DF0E08DB757
:101C30009EB78E1B9F0B0FB6F8949EBF0FBE8DBF35
:101C4000ADB7BEB711969091670040916800232F01
:101C5000290F2A5A240F80916A00281340C08FEF61
:101C6000830F8431E0F5319789EA8C93892F90E0D6
:101C7000982F8827840F911D9093640080936300B0
:101C80005F01AA0EBB1EF5011082782FAD014F5FD8
:101C90005F4F282F692F822F962FFC016591CF016E
:101CA000FA016193AF01F5012081260F2083282FCF
:101CB000692F81E0820F871B381768F7CA2E5D01F4
:101CC0008A2D8C198D1530F00FB6F8941EBF0FBEFB
:101CD0000DBF1DCFF50181915F01ADD0F1CF8FEF29
:101CE000AAD0F2CF14BE88E181BD87E081BDF8940F
:101CF00080E886BD16BC88E085D08BE19DE090939E
:101D0000A3008093A20082E39DE09093A1008093C2
:101D1000A00081E187BFE89518E2CFEFDFEF01C0B7
:101D200021977699C5D07799B2D02097C9F780913D
:101D3000650080FD09C0112311F01150EECFEFEFC7
:101D4000FCE009951FEFE9CF83FF04C0FF77EFEFB9
:101D5000FCE009958091650082FF13C0E0E0FAE1A4
:101D6000E054F10983E080935700E8953097C1F77C
:101D700088E198E00FB6F894A89581BD0FBE91BD9B
:101D8000FFCF209163003091640080916200803425
:101D900009F0C3CF203CF9E13F0708F0BECF85E052
:101DA000F90180935700E8952115310511F59091BF
:101DB0006000809161008F5F9C409F70906CE0ECB0
:101DC000F9E141E06FEF7FEF0B0140935700E89599
:101DD00011243296EE3F59E1F50799F70C01409333
:101DE0005700E895112485E0E0ECF9E18093570075
:101DF000E895205C3F4F309364002093630010927D
:101E000062008BCF10928C0010928D0010928B008C
:101E10001092790010927A001092780080939F00BF
:101E200087B3856087BBC29AC09AB89888EA8DB993
:101E300080EF8EB90895909178009031E1F3E091B0
:101E40007A00F0E0E558FF4F808380917A008F5F41
:101E50008F7080937A00809178008F5F80937800F4
:101E6000089580918B008823E1F3E0918C00F0E0ED
:101E7000E257FF4F80918C008F5F8F7080938C00B2
:101E800080918B00815080938B0080810895109207
:101E90009E00B898B29B02C0B09BFCCFB09906C020
:101EA00088EF8DB980EF8EB9779A089588EAF9CFD7
:101EB00080919E00823009F479C038F4882321F1A2
:101EC000813009F453C0769A0895843009F475C0BE
:101ED00008F444C08530B9F780918B00803190F4CC
:101EE000E0918D008FB1F0E0E257FF4F8083809149
:101EF0008D008F5F8F7080938D0080918B008F5F3E
:101F000080938B0084E020C08FB1882331F08FB1A3
:101F1000869590919F0089131CC0789BF3CFE09128
:101F2000A200F091A300309739F080918B008823B4
:101F300019F080918B000995E091A000F091A1002B
:101F4000309709F0099581E080939E001FB8B89AF8
:101F500032C088EA8DB980E78EB9B5CF8FB18823BA
:101F600029F088EA8DB980E78EB9089580917800CC
:101F70008823B9F0E0917900F0E0E558FF4F8081C7
:101F80008FB9809179008F5F8F70809379008091F5
:101F9000780081508093780082E080939E00B89A08
:101FA000DACF1FB8B8988EE78EB9DBCF83E0809385
:101FB0009E001FB8B8988EE7CFCF85E080939E0033
:041FC000B898C9CF35
:021FC400FFFF1D
:0400000300001A00DF
:00000001FF
