:1010000000C011241FBECFE5D2E0CDBFDEBF10E08F
:10101000A0E6B0E0ECE9F5E102C005900D92A23641
:10102000B107D9F720E0A2E6B0E001C01D92A63AD0
:10103000B207E1F740C10F931F93CF93DF9306E60A
:1010400010E0C82FD0E0CA59DF4F0C171D0729F454
:10105000DF91CF911F910F910895F0D1F801819305
:101060008F01F3CFAF92BF92CF92DF92EF92FF92B8
:101070000F931F93CF93DF93CDB7DEB729970FB6AA
:10108000F894DEBF0FBECDBF0DB71EB780916600CE
:10109000843A09F452C038F4863509F4BEC0833A64
:1010A00079F08FEF9DC0873A09F44DC0883AC9F7AF
:1010B00087E5AED18091650088608093650027C088
:1010C0001F828CE5898384E58A8381E08B838C830E
:1010D00082E28D8380E18E83EFEFFFE08491888749
:1010E000EEEFFFE0849189878091650081608093B5
:1010F0006500CE0101967C016E019AE0C90ED11CFB
:10110000D7018D917D0184D1CE14DF04C9F70FB6CC
:10111000F8941EBF0FBE0DBF29960FB6F894DEBF20
:101120000FBECDBFDF91CF911F910F91FF90EF9038
:10113000DF90CF90BF90AF9008958BE569D18091FB
:1011400065008460BACF8091620020916300309185
:101150006400F901E80FF11D48E0480F309709F0ED
:1011600041C05091670090916800F52EF90E8E5F96
:10117000509361009093600091E06FEF77EC0B016A
:1011800090935700E8951124A6E6B0E014969C9140
:10119000149713965C911397F901E80FF11DD92E5E
:1011A000C52E61E0060160935700E8951124950F64
:1011B000F90E8E5F12968413E9CF809362008091BE
:1011C0006F008F1104C080916200813430F08091F3
:1011D0006500846080936500F12C88E519D18F2D1E
:1011E00017D195CFA6E6B0E0F12C12969C911297FC
:1011F00011965C911197F901E80FF11DD92EC52EBA
:1012000061E0060160935700E8951124950FF90EEF
:101210008E5F12968413E9CFD0CFEDB6FEB6409123
:10122000690062E0D62ED40EED2DF0E08DB79EB7AA
:101230008E1B9F0B0FB6F8949EBF0FBE8DBF2DB7B0
:101240003EB72F5F3F4F8FEF840F843188F5319782
:1012500089EAADB7BEB711968C931197809167005C
:1012600090E0982F882750916800850F911D9093EA
:10127000640080936300E20FF31F1082129681E0F6
:101280008D939081980F90838F5F4817C8F7C22E77
:1012900059018A2D8C198D1530F00FB6F894FEBEC9
:1012A0000FBEEDBE34CFF50181915F01B1D0F1CF1A
:1012B0008FEFAED0F2CF14BE88E181BD87E081BD53
:1012C000F89480E886BD16BC88E089D08BE198E070
:1012D0009093A1008093A00082E398E09093A300F4
:1012E0008093A20081E187BFE89518E2CFEFDFEF9E
:1012F000209751F02197779B02C0B6D0779A769BC2
:10130000F7CFC2D0769AF4CF8091650080FD0BC0F4
:10131000112321F01150CFEFDFEFEDCFEFEFF7E02A
:1013200009951FEFF8CF83FF04C0FF77EFEFF7E0D9
:1013300009958091650082FF13C0E0E0F0E1E05480
:10134000F10983E080935700E8953097C1F788E171
:1013500098E00FB6F894A89581BD0FBE91BDFFCF60
:10136000209163003091640080916200803499F68E
:10137000203CFFE03F0778F685E0F90180935700B5
:10138000E895909160008091610021153105F1F49C
:10139000E0ECFFE041E06FEF7FEF0B01409357007F
:1013A000E89511243296EE3F5FE0F50799F78F5FDD
:1013B00097409F70906C0C0140935700E895112462
:1013C00085E0E0ECFFE080935700E895205C3F4F1C
:1013D0003093640020936300109262009CCF1092BF
:1013E0008C0010928D0010928B0010927900109258
:1013F0007A001092780080939F0087B3856087BB46
:10140000C29AC09AB89888EA8DB980EF8EB90895CB
:10141000909178009031E1F3E0917A00F0E0E558A6
:10142000FF4F808380917A008F5F8F7080937A0066
:10143000809178008F5F80937800089580918B0071
:101440008823E1F3E0918C00F0E0E257FF4F8091B8
:101450008C008F5F8F7080938C0080918B00815007
:1014600080938B008081089510929E00B898B29B63
:1014700002C0B09BFCCFB09905C088EF8DB980EF5A
:101480008EB9089588EAFACF80919E00823009F4DF
:1014900079C038F4882321F1813009F453C0769A59
:1014A0000895843009F475C008F444C08530B9F754
:1014B00080918B00803190F4E0918D008FB1F0E04D
:1014C000E257FF4F808380918D008F5F8F708093F4
:1014D0008D0080918B008F5F80938B0084E020C013
:1014E0008FB1882331F08FB1869590919F00891339
:1014F0001CC0789BF3CFE091A000F091A100309741
:1015000039F080918B00882319F080918B00099528
:10151000E091A200F091A300309709F0099581E0D5
:1015200080939E001FB8B89A32C088EA8DB980E7D0
:101530008EB9B5CF8FB1882329F088EA8DB980E7BD
:101540008EB90895809178008823B9F0E0917900F0
:10155000F0E0E558FF4F80818FB9809179008F5F6F
:101560008F7080937900809178008150809378000B
:1015700082E080939E00B89ADACF1FB8B8988EE7C1
:101580008EB9DBCF83E080939E001FB8B8988EE7BA
:0C159000CFCF85E080939E00B898C9CFB3
:02159C00FFFF4F
:0400000300001000E9
:00000001FF
