:100000000EC028C027C026C025C024C023C022C0DF
:1000100021C020C01FC01EC01DC044C1A2C01124E9
:100020001FBECFE5D2E0DEBFCDBF10E0A0E6B0E05E
:10003000ECEDF3E002C005900D92AC36B107D9F7B4
:1000400021E0ACE6B0E001C01D92A731B207E1F7B4
:1000500046D1C2C1D5CFE0911001EF5FEF73E093BD
:10006000100190910F01E917F1F3F0E0E153FF4F18
:1000700080830895EF92FF920F931F93CF93DF93A6
:1000800000D000D000D0CDB7DEB720911101909103
:100090006C00AEE6B0E030E0381789F021504FEF49
:1000A000420F2F3F11F4242FFACF9F5F9F73E92F48
:1000B000F0E0E257FF4F40814D933F5FEDCF20933B
:1000C000110190936C0090916E00892F8095923968
:1000D00011F138F4903851F5BEDF81E080936D0066
:1000E00033C09339A1F0963D09F596E0E5E6F0E0DE
:1000F000DE01119601900D929A95E1F7ACDF8E0129
:100100000F5F1F4F7E0187E0E80EF11C07C091E0F2
:10011000909364000CC01092640009C00E151F0576
:1001200099F0F80181918F0196DFF8CF8FEF269635
:100130000FB6F894DEBF0FBECDBFDF91CF911F91F8
:100140000F91FF90EF9087CF26960FB6F894DEBF01
:100150000FBECDBFDF91CF911F910F91FF90EF9018
:1001600008951F920F920FB60F9211242F933F9371
:100170004F935F936F937F938F939F93AF93BF93AF
:10018000EF93FF93809115019091160182309105B4
:1001900009F45BC028F40097E1F00197C1F171C048
:1001A0008430910509F45AC058F1059709F069C0E7
:1001B000809111018F5F80931101E091CE00EF5F7C
:1001C000EF73E093CE008FB1F0E0E257FF4F8083F2
:1001D0004EC08FB1882331F08FB186959091140174
:1001E000891330C0789B43C0E0911201F091130154
:1001F000309719F080911101099581E090E039C0A4
:100200008FB1882321F088EA8DB980E78EB9E0911B
:100210000F01809110018E1789F0EF5FEF73E0936B
:100220000F01F0E0E153FF4F80818FB982E090E051
:100230009093160180931501B89A17C01FB8B8980B
:100240008EE78EB988EA8DB910C083E090E0909374
:100250001601809315011FB8B89811C085E090E091
:100260009093160180931501B89880E709C084E047
:1002700090E090931601809315011FB8B89A8EE70D
:100280008EB9FF91EF91BF91AF919F918F917F9127
:100290006F915F914F913F912F910F900FBE0F90F3
:1002A0001F9018951F920F920FB60F9211248F93E3
:1002B000B8981092160110921501B29B02C0B09B23
:1002C000FCCFB09902C088EF01C088EA8DB980EFF9
:1002D0008EB98F910F900FBE0F901F901895A89513
:1002E00014BE88E181BD97E091BD81B5886181BD73
:1002F00091BDF89480E886BD93E096BD7894B99A54
:10030000C1982FE73AE196E0215030409040E1F764
:1003100000C00000F89486BD16BC789481E38093F9
:1003200014011092100110920F01109211011092FD
:10033000CE0010926C0087B3856087BBC09AC29ACA
:10034000B89888EA8DB980E78EB98AE390E09093F7
:10035000130180931201789422E04FEF5FE760E091
:1003600070E080916D00882351F0C19898E088E199
:100370000FB6F894A89581BD0FBE91BDFFCF8091B7
:10038000600090916100A0916200B09163006C01E7
:100390007D0131E0C31AD108E108F108C092600084
:1003A000D0926100E0926200F0926300892B8A2B68
:1003B0008B2B29F780916400882321F088B3822752
:1003C00088BB01C0C1984093600050936100609366
:0C03D000620070936300C5CFF894FFCF6B
:0C03DC00FF7F00000148656C6C6F210081
:00000001FF
